:020000040000fa
:10000000f87f00209f2f0000ff300000ff3000002d
:1000100000000000000000000000000000000000e0
:10002000000000000000000000000000ff300000a1
:100030000000000000000000ff300000b3290000b5
:10004000ff300000ff300000ff300000ff300000f4
:10005000ff300000750c0000ff300000ff30000092
:10006000ff300000ff300000b9040000ff30000046
:10007000ff300000ff300000ff300000ff300000c4
:10008000ff300000ff300000ff300000ff300000b4
:10009000ff300000ff300000ff300000ff300000a4
:1000a000ff300000ff300000ff300000ff30000094
:1000b000ff300000ff300000ff300000ff30000084
:1000c000ff300000ff300000ff300000ff30000074
:1000d000ff300000ff300000ff300000ff30000064
:1000e000ff300000ff300000ff300000ff30000054
:1000f000ff300000ff300000ff300000ff30000044
:10010000ff300000ff300000ff300000ff30000033
:10011000ff300000ff300000ff300000ff30000023
:10012000ff300000ff300000ff300000ff30000013
:10013000ff300000ff300000ff300000ff30000003
:10014000ff300000ff300000ff300000ff300000f3
:0c015000ff300000ff300000ff30000016
:020000040000fa
:10015c00f8b5c046f8bc08bc9e467047cd310000cf
:10016c00f8b5c046f8bc08bc9e467047a9310000e3
:020000040000fa
:10017c0080b582b000af0200fb1d1a70fb1d1b780e
:10018c007f2b12d8fb1d1b781a001f231a4011005d
:10019c004ef20013cef20003fa1d127852b252093d
:1001ac000120884001009200d150c046bd4602b0eb
:1001bc0080bd90b583b000af02003960fb1d1a7092
:1001cc00fb1d1b787f2b2fd84ef20013cef20003b1
:1001dc00fa1d127852b29208c0329200d358fa1d0e
:1001ec001278110003220a40d200ff2191400a002c
:1001fc00d2431a4010003b689b01ff221a40fb1da2
:10020c001b78190003230b40db009a4011004ef2bf
:10021c000013cef20003fa1d127852b29208014379
:10022c00c0329200d15037e04ef60053cef20003ac
:10023c00fa1d127811000f220a40083a9208063271
:10024c0092009b1804331b68fa1d127811000322cc
:10025c000a40d200ff2191400a00d2431a401000fc
:10026c003b689b01ff221a40fb1d1b7819000323de
:10027c000b40db009a404ef60053cef20003f91d02
:10028c0009780c000f2121400839890802430631f6
:10029c0089005b1804331a60c046bd4603b090bd9c
:1002ac0080b500af41f60043c4f200039022422116
:1002bc00995000e0c04641f60043c4f2000390227e
:1002cc009b5842221340002bf4d042f60023c4f278
:1002dc00000301221a7000e0c04642f60023c4f26b
:1002ec0000035b6801221340002bf5d142f600237a
:1002fc00c4f200030f225a63c046bd4680bd80b5d0
:10030c0000af42f60023c4f200031b78dab242f6c7
:10031c000023c4f2000302210a43d2b21a7000e097
:10032c00c04642f60023c4f200035b68022213406d
:10033c00002bf5d1c046bd4680bd80b500af43f261
:10034c000023c4f2000357229b5cdab243f2002371
:10035c00c4f2000307210a43d1b25722995443f245
:10036c000023c4f200039a6943f20023c4f2000391
:10037c0001210a439a6143f20022c4f2000243f2c3
:10038c000023c4f200033b21525cd1b23b229954ae
:10039c0042f60023c4f200031a6b42f60023c4f2a7
:1003ac00000304210a431a6342f60023c4f200033b
:1003bc00da6942f60023c4f2000328490a40da61e4
:1003cc0042f60023c4f20003da6942f60023c4f2b9
:1003dc00000340f600310a43da6142f60023c4f20e
:1003ec000003da6942f60023c4f20003c021890538
:1003fc000a43da6142f60023c4f20003da6942f6da
:10040c000023c4f20003802109060a43da6142f694
:10041c000023c4f200031a6b42f60023c4f200035b
:10042c0080210a431a6342f60023c4f200031a69be
:10043c0042f60023c4f2000380210a431a6142f6fb
:10044c000023c4f200031a6942f60023c4f200032d
:10045c0004210a431a61c046bd4680bdfff0ffff70
:10046c0080b500afc046bd4680bd80b500afbff3c0
:10047c005f8f62b603210520fff79bfe03210a2044
:10048c00fff797fe01235b4203211800fff791fe53
:10049c000520fff76dfe0a20fff76afe01235b4281
:1004ac001800fff765fec046bd4680bd80b500afa5
:1004bc0042f60023c4f200035a6942f60023c4f248
:1004cc00000380210a435a61c04640f20803c2f27d
:1004dc0000031b68f3b940f20003c2f200030122cf
:1004ec001a6040f27833c2f2000301221a6043f220
:1004fc000023c4f2000302225a6140f20803c2f244
:10050c00000301221a6040f20c03c2f20003012224
:10051c001a6018e040f20803c2f200031b68012bba
:10052c0011d140f27833c2f2000300221a6043f278
:10053c000023c4f2000302229a6140f20803c2f2c3
:10054c00000300221a60c046bd4680bd80b582b053
:10055c0000af00237b6040f20043c4f20003012291
:10056c009a7140f20043c4f2000302229a7000e038
:10057c00c04640f20043c4f200039b79dbb21a0080
:10058c0001231340002bf3d040f20043c4f20003cc
:10059c0001229a7145f20003c4f2001304225a603e
:1005ac0041f60003c4f2000340f202321a6200e08a
:1005bc00c04641f60003c4f20003da688023db0274
:1005cc001340002bf4d041f20003c4f200030022cc
:1005dc001a8600e0c04641f20003c4f200031a6917
:1005ec0080235b041340002bf4d046f22003c0f2ae
:1005fc0080031b687b607a68fc23db0513407b60ff
:10060c007b68db0b7b607b6840f2002213437b60d2
:10061c0041f20003c4f200037a685a6300e0c0465a
:10062c0041f20003c4f200031a6980235b041340f7
:10063c00002bf4d041f20003c4f200031b8e9ab2db
:10064c0041f20003c4f2000302210a4392b21a865b
:10065c0000e0c04641f20003c4f200031a69802393
:10066c005b041340002bf4d041f60043c4f20003aa
:10067c0040f205129a6200e0c04641f60043c4f213
:10068c0000035b6810221340002bf5d141f60043a8
:10069c00c4f2000340f20712c0f202021a6200e038
:1006ac00c04641f60043c4f200035b6804221340c9
:1006bc00002bf5d1c046bd4602b080bd80b500af61
:1006cc0041f60043c4f20003dc2240219950c0469d
:1006dc0041f60043c4f20003dc229b589b01002b23
:1006ec00f6d041f60043c4f2002301221a60c04642
:1006fc0041f60043c4f200231b6901221340002b76
:10070c00f6d141f60043c4f200231a4a9a83c0463c
:10071c0041f60043c4f200231b6940221340002b16
:10072c00f6d141f60043c4f2002300221a6041f6d0
:10073c000043c4f2002310221a6041f60043c4f2b5
:10074c00002340f200721a6041f60043c4f2002309
:10075c0001221a7341f60043c4f200231a6841f6d1
:10076c000043c4f2002302210a431a60c046bd466e
:10077c0080bdc0461cb7ffff80b500af41f60043fb
:10078c00c4f20003ec229a5841f60043c4f2000371
:10079c0040210a43ec215a50c04641f60043c4f2b2
:1007ac000003ec229b5840221340002bf5d043f25f
:1007bc000043c4f200231a6843f20043c4f200233e
:1007cc0001210a431a60c04643f20043c4f20023dd
:1007dc009b6801229343002bf6d143f20043c4f2f1
:1007ec0000231a6843f20043c4f2002341f2007163
:1007fc000a431a60c04643f20043c4f200239b68cc
:10080c0001229343002bf6d143f20042c4f20022a2
:10081c0043f20043c4f2002352695a6143f200438d
:10082c00c4f20023d96b43f20043c4f2002302222a
:10083c00c0f20b020a43da63c04643f20043c4f22f
:10084c0000239b6840229343002bf6d143f20043d4
:10085c00c4f2002346f63662c0f201021a64c046a6
:10086c0043f20043c4f200239b6880221340002b08
:10087c00f6d143f20043c4f200231a6843f200435a
:10088c00c4f2002302210a431a60c04643f200431b
:10089c00c4f200239b6801229343002bf6d1c0467f
:1008ac00bd4680bd80b500af42f60003c4f2002304
:1008bc001a6842f60003c4f2002301210a431a60ad
:1008cc00c04642f60003c4f200239b680122934306
:1008dc00002bf6d142f60003c4f200231a6842f64c
:1008ec000003c4f2002341f200710a431a60c046af
:1008fc0042f60003c4f200239b6801229343002bb1
:10090c00f6d142f60002c4f2002242f60003c4f211
:10091c00002352695a6142f60003c4f20023d96bda
:10092c0042f60003c4f200230222c0f204020a437e
:10093c00da63c04642f60003c4f200239b684022ef
:10094c009343002bf6d142f60003c4f2002340f28d
:10095c000a121a6442f60003c4f200238522da64f8
:10096c00c04642f60003c4f200239b688022134069
:10097c00002bf6d142f60003c4f200231a6842f6ab
:10098c000003c4f2002302210a431a60c04642f657
:10099c000003c4f200239b6801229343002bf6d181
:1009ac00c046bd4680bd80b500af41f60043c4f2e1
:1009bc000003e4229a5841f60043c4f2000340219c
:1009cc000a43e4215a50c04641f60043c4f20003e6
:1009dc00e4229b5840221340002bf5d042f60043f2
:1009ec00c4f200231a6842f60043c4f2002301212a
:1009fc000a431a60c04642f60043c4f200239b68c7
:100a0c0001229343002bf6d142f60043c4f200239b
:100a1c001a6842f60043c4f2002341f200710a4303
:100a2c001a60c04642f60043c4f200239b680122c0
:100a3c009343002bf6d142f60042c4f2002242f658
:100a4c000043c4f2002352695a6142f60043c4f2d7
:100a5c000023d96b42f60043c4f200230222c0f2f9
:100a6c000b020a43da63c04642f60043c4f2002389
:100a7c009b6840229343002bf6d142f60043c4f20c
:100a8c00002341f2e072c0f210021a64c04642f632
:100a9c000043c4f200239b6880221340002bf6d144
:100aac0042f60043c4f200231a6842f60043c4f233
:100abc00002302210a431a60c04642f60043c4f2e6
:100acc0000239b6801229343002bf6d1c046bd4600
:100adc0080bd80b500af40f20023c4f20023012298
:100aec001a70c046c046c046c046bd4680bd80b5e3
:100afc0000af43f20023c4f200039a6843f20023d0
:100b0c00c4f2000348f200010a439a6043f2002346
:100b1c00c4f200034f229b5cdab243f20023c4f20e
:100b2c00000302210a43d1b24f229954c046bd465c
:100b3c0080bd80b500af41f60043c4f20023802293
:100b4c005a71c04641f60043c4f200231b690422cb
:100b5c001340002bf6d141f60043c4f200239b8acc
:100b6c009bb21800bd4680bdb0b500af40f20c037f
:100b7c00c2f200031b68012b07d143f20023c4f21d
:100b8c00000348f200025a6146e040f2b423c2f27c
:100b9c0000031b68012b32d1fff7cbff03001800b9
:100bac0002f0c4fb04000d0041f60043c4f2002324
:100bbc009b8b9bb2180002f0b9fb43f23332c3f2a9
:100bcc00333243f23333c3f6c37302f046f80200f8
:100bdc000b002000290002f001fb03003bb143f2a3
:100bec000023c4f2000348f200029a6114e043f2bd
:100bfc000023c4f2000348f200025a610ce040f2f8
:100c0c000003c2f200031b6833b943f20023c4f2a1
:100c1c00000348f200029a6140f21003c2f2000392
:100c2c001b78042b05d89a00034bd3181b689f46de
:100c3c00c046c046bd46b0bdcc33000080b582b0c6
:100c4c0000afba1d40f25c33c2f200031b88138064
:100c5c0040f25c33c2f2000300221a80bb1d1b88d9
:100c6c001800bd4602b080bd80b500af40f25c33c9
:100c7c00c2f200031b889bb2032293439ab240f248
:100c8c005c33c2f200031a8042f60023c4f2000364
:100c9c009b6b0422134073b940f25c33c2f2000325
:100cac001b889bb2012213439ab240f25c33c2f20e
:100cbc0000031a800de040f25c33c2f200031b8883
:100ccc009bb2022213439ab240f25c33c2f200038d
:100cdc001a8042f60023c4f200035a6942f600233c
:100cec00c4f2000304210a435a61c046bd4680bdcc
:100cfc0080b500af43f20023c4f2000353229b5c87
:100d0c00dab243f20023c4f2000302210a43d1b247
:100d1c005322995443f20023c4f200039a6843f21d
:100d2c000023c4f20003802109030a439a6043f2b2
:100d3c000023c4f200039a6943f20023c4f20003b7
:100d4c00802109030a439a6143f20023c4f2000391
:100d5c0052229b5cdab243f20023c4f20003072157
:100d6c000a43d1b25222995443f20022c4f2000237
:100d7c0043f20023c4f2000392689a6043f200220b
:100d8c00c4f2000243f20023c4f2000392699a6198
:100d9c0043f20022c4f2000243f20023c4f2000327
:100dac003921525cd1b239229954c046bd4680bd1e
:100dbc0080b500af43f20023c4f200039a6843f2fb
:100dcc000023c4f2000302210a439a6043f2002379
:100ddc00c4f200039a6943f20023c4f20003022117
:100dec000a439a61c046bd4680bd80b500af43f250
:100dfc000023c4f2000354229b5cdab243f20023ba
:100e0c00c4f2000301210a43d1b25422995443f293
:100e1c000023c4f200033a229b5cdab243f20023b3
:100e2c00c4f2000309210a43d1b23a22995443f285
:100e3c000023c4f200039a6843f20023c4f20003b7
:100e4c00802149030a439a60c046bd4680bd80b5e7
:100e5c0000af43f20023c4f200039a6843f200236c
:100e6c00c4f2000304210a439a6043f20023c4f243
:100e7c0000039a6943f20023c4f2000304210a43dd
:100e8c009a61c046bd4680bd80b500affff75efbe2
:100e9c00fff71ffefff704fafff710fcfff783fdc7
:100eac00fff700fdfff768fcfff79ffffff7cfff91
:100ebc00fff743fafff77cfffff71afffff7d0fab3
:100ecc00fff715fe00f06efcfff719fa01f0bffdfd
:100edc00fff7cbfac046bd4680bd80b582b000afef
:100eec003b00180001f0ebfd3b00180000f09cfeed
:080efc00c046bd4602b080bdf6
:020000040000fa
:100f040080b500af43f20043c4f200235b79dab248
:100f140043f20043c4f20023802149420a43d2b27f
:100f24005a71c04643f20043c4f200239b6843f263
:100f34000043c4f200235b6b1800bd4680bd80b53e
:100f440000af42f60043c4f200235b79dab242f602
:100f54000043c4f20023802149420a43d2b25a71a9
:100f6400c04642f60043c4f200239b6842f60043a5
:100f7400c4f200235b6b1800bd4680bd80b582b00f
:100f840000af78607b6888220021180002f03afaea
:100f9400fff77eff7b6876331a007b689a667b686e
:100fa4006c22102199527b686833180000f03dffd1
:100fb400c046bd4602b080bd80b582b000af786047
:100fc4000a00fb1c1a70fb1c1b789bb140f2100337
:100fd400c2f200031b78032b0cd840f21003c2f2b8
:100fe40000031b780133dab240f21003c2f20003ab
:100ff4001a7017e0fb1c1b7801225340dbb28bb143
:1010040040f21003c2f200031b785bb140f21003fc
:10101400c2f200031b78013bdab240f21003c2f2c1
:1010240000031a707a6842f2f413c0f200035360aa
:101034007b680b221a8140f21003c2f200031b7872
:101044001a0040f21463c2f200039200d2587b6883
:10105400da6040f21003c2f200031b781a0040f277
:101064001463c2f200039200d358180002f07ef910
:1010740003009ab27b681a827b6804330221180049
:1010840000f06afefff774fdc046bd4602b080bda5
:10109400f0b587b000af78601623fb1800221a80e1
:1010a4001223fb1800221a801423fb1800221a8032
:1010b400fff717fffff75cfd40f2b023c2f2000315
:1010c4001b68012b15d142f60043c4f20023002211
:1010d4005a63c04642f60043c4f200239b681022c0
:1010e4001340002bf6d140f2b023c2f200030022d9
:1010f4001a60fff724ff03001a0042f60043c4f20b
:1011040000231b6c9a420ed27b6876229b5c1b2bbd
:101114001ed17b6877229b5c5b2b19d17b6878227c
:101124009b5c462b14d17a6842f26013c0f2000330
:1011340053607b6804221a817b6804330121180000
:1011440000f00afe40f2b423c2f2000301221a6046
:1011540040f21403c2f200031b68abb97a6841f68b
:101164008463c0f2000353607b6840f2d8221a8182
:101174007b6804330121180000f0eefd40f21403f3
:10118400c2f2000301221a6040f20003c2f200031b
:101194001b68012b06d040f22863c2f200031b68cf
:1011a400012b65d17b686e229b5a9bb2012b5fd1c8
:1011b40011203b187a687621525c1a700200bb1821
:1011c4001b78052b08d0bb181b781b2b3cd17b68e4
:1011d40078229b5c482b37d17b681b880122134300
:1011e4009ab27b681a8040f28033c2f2000318007e
:1011f40002f0bcf803001a0040f28033c2f200038c
:10120400d21842f25c23c0f2000310001900052337
:101214001a0002f0edf840f22863c2f20003002243
:101224001a6040f2b423c2f2000300221a6040f2b2
:10123400b023c2f2000301221a6040f20c03c2f28e
:10124400000300221a600ce040f2b023c2f2000353
:1012540000221a607b681b88022213439ab27b68bf
:101264001a807b6870229b5a99b27b6874229952c7
:1012740040f20003c2f200031b683bb140f20403d6
:10128400c2f200031b68012b00d0afe040f22863d8
:10129400c2f200031b68002b00d0a7e016257c19be
:1012a400fff7d0fc0300238029007b181b88002b48
:1012b4005ad040f2b023c2f2000301221a607b1814
:1012c4001b88012213408bb37a6842f20023c0f2d8
:1012d400000353607b6807221a817a6842f208236c
:1012e400c0f20003d3607b681b221a827b6804333c
:1012f4000221180000f030fd40f20403c2f20003a2
:101304001b68012b30d140f20403c2f20003002217
:101314001a6040f20003c2f2000300221a6040f295
:101324000c03c2f2000300221a601de01623fb180e
:101334001b8802221340bbb17a6842f20023c0f238
:10134400000353607b6807221a817a6842f22423df
:10135400c0f20003d3607b681b221a827b680433cb
:101364000221180000f0f8fc7b686e229b5a9bb2a5
:10137400012b3bd140f20403c2f200031b68abbb58
:1013840010203b187a687621525c1a700200bb1850
:101394001b78052b08d0bb181b781b2b18d17b6836
:1013a40078229b5c482b13d17b681b880122134352
:1013b4009ab27b681a8040f2b023c2f20003012281
:1013c4001a6040f2b423c2f2000300221a6006e05d
:1013d4007b681b88022213439ab27b681a807b685d
:1013e40070229b5a99b27b687422995240f27833e6
:1013f400c2f200031b68bbb9fff782fd03001a00a9
:1014040043f20043c4f200231b6c9a421cd343f200
:101414000023c4f2000302225a6140f20403c2f220
:10142400000301221a600fe043f20043c4f20023d8
:1014340000225a63c04643f20043c4f200239b686f
:1014440010221340002bf6d17b681b881a0001235d
:101454001340002b3ad000f092fc0300002b37d14c
:101464007b681b881bb2002b1fdb7a6840f2803339
:10147400c2f2000353607b6840f290221a817b68b9
:1014840004330221180000f067fc7b681b88c04a03
:1014940013439ab27b681a807b686e2200219952aa
:1014a4007b686833180000f0c0fc7b6804330121ba
:1014b400180000f051fc03005bb17b681b8847f601
:1014c400fe7213409ab27b681a8002e0c04600e0c4
:1014d400c0467b681b881a0002231340002b00d1ee
:1014e4004ee100f04cfc0300002b00d04ae17b6885
:1014f4001b881bb2002b00da28e140f20003c2f281
:1015040000031b687b68243340220021180001f08b
:1015140079ff7b6874229b5a002b4dd07b68002294
:101524001a827b6824331a007b68da601623fb185e
:1015340000221a801423fb1800221a8029e07b68f9
:1015440024331a0014257b191b88d0187b191b8897
:101554003f22d41a1626bb191b887a687621d31821
:101564005b181b7842f26422c0f20002210001f0f1
:1015740015ff020012203b181a807b1979193a18ba
:10158400098812888a181a80bb19ba19128801327c
:101594001a807b6874229b5a1622ba1812889a42bf
:1015a40004d21423fb181b883e2bc8d97b68142251
:1015b400ba1812881a8208e07b6807221a827a68ad
:1015c40042f26c23c0f20003d36040f20003c2f283
:1015d40000031b68002b00d08ee040f22863c2f2a7
:1015e40000031b68002b00d086e00f203b187a68ac
:1015f4007621525c1a703b181b78092b05d140f2f6
:10160400b023c2f2000301221a600f23fb181b78d7
:10161400202b0fd142f60003c4f2002300221a60eb
:10162400c04642f60003c4f200239b6801229343a0
:10163400002bf6d10f23fb181b781b2b4cd17b6896
:1016440077229b5c5b2b56d17b6878229b5c442b76
:1016540004d07b6878229b5c432b15d142f60003af
:10166400c4f200231a6842f60003c4f200230221e4
:101674000a431a60c04642f60003c4f200239b6882
:1016840001229343002bf6d17b6878229b5c432b89
:101694000ed0442b30d140f2b023c2f20003012219
:1016a4001a6043f20023c4f2000304225a6123e0c7
:1016b40040f2b023c2f2000301221a6043f2002375
:1016c400c4f200039a6943f20023c4f20003042124
:1016d4000a439a61c0460fe07b681b8802221343c9
:1016e4009ab27b681a807b6870229b5a99b27b6895
:1016f4007422995200e0c0467b681b88022213437f
:101704009ab27b681a807b6870229b5a99b27b6874
:101714007422995201e0fff7e4fb00f030fb030070
:10172400002bf8d17b686e22002199527b686833c4
:10173400180000f07afb7b681b88154a13439ab2a1
:101744007b681a807b687422002199527b68043379
:101754000321180000f000fb0300abb17b686e228c
:10176400002199527b686833180000f05efb7b68a7
:101774001b8847f6fd7213409ab27b681a8002e018
:10178400c04600e0c046c046c046bd4607b0f0bdf6
:101794000080ffff80b5a2b000af3b001800fff748
:0c17a400edfb3b001800fff773fcfae7b8
:020000040000fa
:1017b00080b500af40f60003c4f20003da6940f6da
:1017c0000003c4f2000310210a43da6141f600432a
:1017d000c4f20003d02242219950c04641f6004392
:1017e000c4f20003d0229b5840221340002bf5d0b6
:1017f00040f20833c2f200032c220021180001f04d
:1018000003fe40f20833c2f2000341f20002c4f2c8
:1018100000221a6041f20003c4f2002301221a6080
:10182000c04641f20003c4f20023db6901221340e9
:10183000002bf6d141f20003c4f2002304221a6007
:1018400041f20003c4f200231a6841f20003c4f21b
:1018500000238021c9050a431a6041f20003c4f243
:1018600000231a6841f20003c4f2002380214903d7
:101870000a431a6041f20002c4f2002241f200035e
:10188000c4f2002352685a6041f20003c4f20023fc
:101890001a6841f20003c4f20023802149040a437c
:1018a0001a6041f20002c4f2002241f20003c4f2c5
:1018b000002352685a6041f20002c4f2002241f251
:1018c0000003c4f2002312681a6041f20002c4f25d
:1018d000002241f20003c4f2002312681a6041f2b0
:1018e0000002c4f2002241f20003c4f20023526855
:1018f0005a6041f20002c4f2002241f20003c4f235
:10190000002352685a6041f20002c4f2002241f200
:101910000003c4f2002392689a6041f20003c4f20b
:101920000023404a9a8140f20833c2f200030022a9
:101930005a6240f20833c2f2000344f61c62c0f25d
:101940000e029a6241f20003c4f200235a6841f287
:101950000003c4f20023c32109040a435a60c046ad
:1019600041f20003c4f20023db6904221340002b80
:10197000f6d143f20023c4f20003c8229b5cdab222
:1019800043f20023c4f2000303210a43d1b2c82268
:10199000995443f20023c4f20003b4229b5cdab2f0
:1019a00043f20023c4f2000303210a43d1b2b4225c
:1019b000995443f20023c4f20003c9229b5cdab2bb
:1019c00043f20023c4f2000303210a43d1b2c92227
:1019d000995443f20023c4f20003b4229b5cdab2b0
:1019e00043f20023c4f2000330210a43d1b2b422ef
:1019f000995441f20003c4f200231a6841f2000333
:101a0000c4f2002302210a431a60c04641f20003d7
:101a1000c4f20023db6902221340002bf6d1c0463a
:101a2000bd4680bd05c5ffff80b582b000af7860c0
:101a30007b685b6963b17b685b690122da807b68e4
:101a40005b697a68128c92b21a817b6800225a61b3
:101a50007b6800229a617b680022da617b68002241
:101a60001a84c046bd4602b080bd90b587b000afb5
:101a7000786039601623fb1800221a801523fb18a2
:101a800000221a707b681b681b7edbb21a000123e0
:101a90001340002b50d07b681b8a9bb283b17b68bc
:101aa000db68591c7a68d1601b78dab27b681b68e6
:101ab0009a627b681b8a9bb2013b9ab27b681a824e
:101ac0007b681b8a9bb2002b36d17b680022da60d0
:101ad0007b681b899bb22bb37b685b681a687b6849
:101ae000da607b685b689b889ab27b681a827b6845
:101af0005b6808331a007b685a607b681b899bb25d
:101b0000013b9ab27b681a817b68db681bb17b68fa
:101b10001b8a9bb283b97b680022da607b68002253
:101b20001a8209e07b681b6801221a757b68002213
:101b30005a607b680022da607b681b681b7edbb220
:101b40001a000423134073b17b681b685b8b9ab245
:101b50001623fb1836490a431a807b681b689a6a69
:101b60001523fb181a707b685b69002b59d016236c
:101b7000fb181b8848f20302134048f2000293420c
:101b800013d17b685b691a687b681b8c9bb2591cfc
:101b900088b279680884d3181522ba1812781a7096
:101ba0007b683a68183303ca03c37b681b685b8b86
:101bb0009bb21ab21623fb1800215b5ef7210b4083
:101bc0001bb213431ab27b681b6892b25a837b68bc
:101bd0001b8c9ab27b685b699b889bb29a4204d348
:101be0007b681800fff720ff1ce07b681b8c9bb212
:101bf000cbb17b6818331a0039680c243b191800e4
:101c000000f0a7ff7b6824331a003b19110018006d
:101c100000f0a3fe031e06db7b681800fff704ff3d
:101c200000e0c046c046c046bd4607b090bdc046b5
:101c30000080ffff80b582b000af78607a6840f224
:101c40000833c2f2000311001800fff70effc04670
:101c5000bd4602b080bd80b582b000af78607b68c1
:101c60001b8a9bb25bb97b681b899bb23bb97b68c3
:101c70001b681b7edbb21a00012313400bb9012342
:101c800000e000231a1c01231340dbb21800bd46fc
:101c900002b080bd80b588b000aff860b9607a60ee
:101ca0001e23fb18082252421a80bb680bb17b68c6
:101cb0000bb901233ae07b68202b01d9002335e0e2
:101cc000fb681800fff7c7ff03000bb100232de0ee
:101cd0000023bb6100237b611ce0bb69db00ba68a9
:101ce000d3189b881e22ba1812889a4201d2002368
:101cf0001ce0bb69db00ba68d3189a881e217b18e8
:101d0000791809888a1a1a807b6901337b61bb695b
:101d10000133bb61ba697b689a42ded3fb68ba685b
:101d20005a607b689ab2fb681a8101231800bd468d
:101d300008b080bd80b582b000af78607b680022bb
:101d40001a817b6800225a607b6800221a827b68b5
:101d50000022da60c046bd4602b080bd80b582b0c8
:101d600000af786039603a68796840f20833c2f2af
:101d700000031800fff78eff03001800bd4602b0f5
:101d800080bd80b500af40f20833c2f200031800f6
:101d9000fff761ff03001800bd4680bd80b500afae
:101da00040f20833c2f200031800fff7c3ffc04639
:101db000bd4680bd80b582b000af78607b685b694e
:101dc0005a1e9341dbb21800bd4602b080bd80b5fb
:101dd00082b000af786039603b685bb13b681b68dc
:101de00043b13b689b882bb13b689b884ff6f872e8
:101df000934201d9002316e07b685b690bb1002395
:101e000011e03b680022da803b6800221a817b687f
:101e100000221a847b681833180000f056fe7b6895
:101e20003a685a6101231800bd4602b080bd80b5f2
:101e300082b000af78607a6840f20833c2f20003e3
:101e400011001800fff7c3ff03001800bd4602b0e1
:101e500080bd80b500af40f20833c2f20003180025
:101e6000fff7a8ff03001800bd4680bd80b500af96
:101e700040f20833c2f200031800fff7d5fdc04658
:041e8000bd4680bd1e
:020000040000fa
:101e84001b5b313b31482b2d2d2d2d2d2d2d2d2d33
:101e94002d2d2d2d2d2d2d2d2d2d2d2d2d2d2d2d6e
:101ea4002d2d2d2d2d2d2d2d2d2d2d2d2d2d2d2d5e
:101eb4002d2d2d2d2d2d2d2d2d2d2d2d2d2d2d2d4e
:101ec4002d2d2d2d2d2d2d2d2d2d2d2b0d0a7c2041
:101ed400454545203135383a20456c65637472694f
:101ee40063616c20616e6420456c656374726f6e0f
:101ef40069637320456e67696e656572696e6720f4
:101f04004c61626f7261746f7279205620202020b8
:101f14002020207c0d0a7c2020202020202020202e
:101f24002041636164656d69632059656172203283
:101f34003032342d323032352c2053656d65737454
:101f440065722031202020202020202020202020e5
:101f540020202020202020202020207c0d0a7c20ee
:101f6400202020202020202020202020202020206d
:101f7400202020202020202020202020202020205d
:101f8400202020202020202020202020202020204d
:101f9400202020202020202020202020202020203d
:101fa4002020207c0d0a7c20536f6c7574696f6e41
:101fb4003a204d616368696e652050726f626c658a
:101fc4006d203220202020202020202020202020ae
:101fd40020202020202020202020202020202020fd
:101fe40020202020202020202020207c0d0a7c205e
:101ff40020202020202020202020202020202020dd
:1020040020202020202020202020202020202020cc
:1020140020202020202020202020202020202020bc
:1020240020202020202020202020202020202020ac
:102034002020207c0d0a7c20417574686f723a2040
:102044002043687269737469616e204b6c65696eb4
:1020540020432e2052616d6f73202f2f20534e206a
:1020640032303232203033313236202020202020ca
:1020740020202020202020202020207c0d0a7c20cd
:10208400446174653a202020203033204a616e2058
:1020940032303235202020202020202020202020f3
:1020a400202020202020202020202020202020202c
:1020b400202020202020202020202020202020201c
:1020c4002020207c0d0a2b2d2d2d2d2d2d2d2d2d59
:1020d4002d2d2d2d2d2d2d2d2d2d2d2d2d2d2d2d2c
:1020e4002d2d2d2d2d2d2d2d2d2d2d2d2d2d2d2d1c
:1020f4002d2d2d2d2d2d2d2d2d2d2d2d2d2d2d2d0c
:102104002d2d2d2d2d2d2d2d2d2d2d2b0d0a0d0a83
:1021140053797374656d205374617475733a205bdd
:1021240020414354495645205d0d0a4d6f746f722a
:1021340020446972656374696f6e3a205b2053545e
:102144004f50504544205d0d0a53706565643a2034
:102154005b203025205d0d0a0000c0461b5b324a1f
:102164000000c046426c696e6b2053657474696ede
:10217400673a205b2020204f464620205d0d0a0050
:10218400426c696e6b2053657474696e673a205ba8
:102194002020534c4f5720205d0d0a00426c696e7d
:1021a4006b2053657474696e673a205b204d454417
:1021b40049554d205d0d0a00426c696e6b205365d4
:1021c4007474696e673a205b202046415354202082
:1021d4005d0d0a00426c696e6b2053657474696e00
:1021e400673a205b2020204f4e2020205d0d0a00fe
:1021f4001b5b31323b31481b5b304b001b5b313185
:102204003b3148004f6e2d626f61726420627574b9
:10221400746f6e3a205b507265737365645d200061
:102224004f6e2d626f61726420627574746f6e3ac2
:10223400205b52656c65617365645d001b5b3133c3
:102244003b314800454d455247454e4359204d4f7b
:102254004445204f4e0d0a00746573740000c04657
:10226400253032582000c0463c4e6f6e653e20003b
:020000040000fa
:102274002c06002004000000010000000000000003
:10228400340300201c000000000000003006002081
:1022940004000000010000008e5b000050030020d9
:1022a4000e00000000000000600300200c0000008d
:1022b40000000000080300202c00000000000000c3
:1022c40078030020b40200000100000001000000b7
:1022d400010000001b5b313b31482b2d2d2d2d2d92
:1022e4002d2d2d2d2d2d2d2d2d2d2d2d2d2d2d2d1a
:1022f4002d2d2d2d2d2d2d2d2d2d2d2d2d2d2d2d0a
:102304002d2d2d2d2d2d2d2d2d2d2d2d2d2d2d2df9
:102314002d2d2d2d2d2d2d2d2d2d2d2d2d2d2d2beb
:102324000d0a7c20454545203135383a20456c65f9
:102334006374726963616c20616e6420456c6563cb
:1023440074726f6e69637320456e67696e6565723a
:10235400696e67204c61626f7261746f7279205686
:10236400202020202020207c0d0a7c2020202020da
:10237400202020202041636164656d6963205965d4
:10238400617220323032342d323032352c20536594
:102394006d65737465722031202020202020202058
:1023a4002020202020202020202020202020207ccd
:1023b4000d0a7c20202020202020202020202020e6
:1023c4002020202020202020202020202020202009
:1023d40020202020202020202020202020202020f9
:1023e40020202020202020202020202020202020e9
:1023f400202020202020207c0d0a7c20536f6c7527
:1024040074696f6e3a204d616368696e652050721d
:102414006f626c656d203220202020202020202037
:1024240020202020202020202020202020202020a8
:102434002020202020202020202020202020207c3c
:102444000d0a7c2020202020202020202020202055
:102454002020202020202020202020202020202078
:102464002020202020202020202020202020202068
:102474002020202020202020202020202020202058
:10248400202020202020207c0d0a7c2041757468a7
:102494006f723a202043687269737469616e204bcd
:1024a4006c65696e20432e2052616d6f73202f2f4f
:1024b40020534e2032303232203033313236202015
:1024c4002020202020202020202020202020207cac
:1024d4000d0a7c20446174653a202020203033208a
:1024e4004a616e20323032352020202020202020e6
:1024f40020202020202020202020202020202020d8
:1025040020202020202020202020202020202020c7
:10251400202020202020207c0d0a2b2d2d2d2d2d38
:102524002d2d2d2d2d2d2d2d2d2d2d2d2d2d2d2dd7
:102534002d2d2d2d2d2d2d2d2d2d2d2d2d2d2d2dc7
:102544002d2d2d2d2d2d2d2d2d2d2d2d2d2d2d2db7
:102554002d2d2d2d2d2d2d2d2d2d2d2d2d2d2d2ba9
:102564000d0a0d0a0000000068210000842100000b
:10257400a0210000bc210000d821000001000000bf
:1025840000000020b8020000000000006c030020de
:102594000400000000000000b80200205000000009
:1025a400000000007003002008000000000000008c
:1025b40034060020040000000100000000000000b8
:1025c40000000000000000006666666666666666d7
:020000040000fa
:1025d4000023f0b506001500b1b0079103930799e5
:1025e4000b78002b00d10ae101235b420c9310ab62
:1025f40000240e9380230b940d940f930b5d0bb169
:10260400252b29d134b12200300000f070fe079b45
:102614001b190793079b1a78252a00d0e4e040f29f
:10262400020c0121102701330493079307980378c0
:102634002b2b1ad025d8202b1ad0232b1dd02a2b94
:1026440028d000f0eefd0d90079b1a78303a092a45
:1026540031d801330793f7e70134cfe70b9b059398
:102664000b4301300b930790e0e704230b9a0fe030
:102674000b9b0593059a08230ae00b9b05933b43a8
:10268400efe72d2bead0302bd9d162460b9b059373
:102694001343e6e72b6801301a1d1b6807902a6074
:1026a4000d93002b07da0b9a5b42059201220599e0
:1026b4000d934a400b920b9bda0702d502229343f7
:1026c4000b93079b1a782e2a0ed10022581c0c92c9
:1026d40007905a782a2a27d1023307932b681a1da8
:1026e4001b682a6005930c9307a800f0b9fd079bab
:1026f4000700187800f0a1fe692800d182e034dcdc
:10270400632800d1d7e01adc252800d1e4e0612851
:1027140058d0049b01220793002352420c920b933e
:102724000d9300930232e1e000f07bfd0c90079bd7
:102734001a78303a092ad7d801330793f7e764287f
:1027440060d06728e5dc2a00390008a800f0bafd4b
:10275400002800d1abe0079b0ba95a1c07921b78f9
:1027640008aa300000f087fe3de0702800d17be02d
:1027740016dc6e2800d193e06f28cad12b0000220a
:10278400390008a800f0aefb002800d18fe0079bb9
:1027940008aa01330ba93000079300f06afe22e077
:1027a400752840d078284ed07328b2d1802f00d01d
:1027b4007de0079b2a6801330793131d2b60126881
:1027c400002384e02a00390008a800f07bfd0028db
:1027d40000d16ce0079b0ba95a1c07921b7808aa2e
:1027e400300000f048fe2418039b1c19a34200dcaf
:1027f4007ee04f223f4b1a6001235b420393039810
:1028040031b0f0bd2b000122390008a800f06afbaa
:1028140000284cd0079b08aa01330ba9300007936a
:1028240000f027fedfe72b000022390008a800f0a3
:1028340059fbe0b3079b08aa01330ba930000793a7
:1028440000f017fecfe72b000022390008a800f0a3
:1028540049fb60b3079b5a1c07921b7808aa0ba973
:10286400300000f0a7fabee72b000022f02108a8f0
:1028740000f038fbd8b1079b099a01330793089bf2
:1028840013435bb91c4800f071fd02000b9b1a490d
:1028940000930d9b300000f0bffba4e77823dde735
:1028a400039b39001a1908a82b0000f0f2fb079bc0
:1028b4000133079398e7802ff9d1079b01330793de
:1028c4002b681a1d1b682a6008aa137001230ba920
:1028d400300000f0d2fd86e7802fe8d10122079b6b
:1028e400013307930b9b049300930d9b0349d1e79a
:1028f400039474e6740300205a340000603400002a
:020000040000fa
:1029040080b582b000af786019e07b685b6843f201
:102914000062ccf265429a187b685a607b681b6837
:10292400013305d07b681b685a1c7b681a6006e07b
:102934007a684cf6ff13c3f69a33536007e07b685a
:102944005a684cf6ff13c3f69a339a42ddd8c04650
:10295400bd4602b080bd80b582b000af78603960fa
:102964007b681a683b681b689a4202d201235b4267
:1029740019e07b681a683b681b689a4201d90123f5
:1029840011e07b685a683b685b689a4202d2012373
:102994005b4208e07b685a683b685b689a4201d9ed
:1029a400012300e000231800bd4602b080bd80b5bd
:1029b40082b000af3a0040f26033c2f2000303cbae
:1029c40003c23b005b6844f64032c0f24c029a18e2
:1029d4003b005a600de03b005b6843f20062ccf2be
:1029e40065429a183b005a603b001b685a1c3b0026
:1029f4001a603b005a684cf6ff13c3f69a339a42a6
:102a0400e9d840f26833c2f200031b685a1c40f252
:102a14006833c2f200031a6040f26033c2f200036a
:102a24003a0003ca03c340f26833c2f200031b68ce
:102a34005a1c40f26833c2f200031a604ef21003cb
:102a4400cef2000348f25812c0f215029a60c04652
:102a5400bd4602b080bd80b500af4ef21003cef289
:102a640000034ef660225a604ef21003cef20003c9
:102a740048f25812c0f215029a604ef21003cef2d8
:102a8400000307221a60c046bd4680bd80b584b0ed
:102a940000af786040f26833c2f200031b68fb6049
:102aa4007a6840f26033c2f2000303cb03c240f2ff
:102ab4006833c2f200031b68fa689a42ead1c0463e
:102ac400bd4604b080bd90b587b000af78604ef2cb
:102ad4001003cef200039b684ef66022d31a7b618a
:102ae4000c243b191800fff7d1ff20003b1859684c
:102af4007a6913005b019b1a9b009b18db001a0088
:102b04000c23b2fbf3f3ca183b185a600ee00c21f5
:102b14007b185b6843f20062ccf265429a187b181a
:102b24005a607b181b685a1c7b181a600c217b188e
:102b34005a684cf6ff13c3f69a339a42e7d87b6877
:102b44007a1803ca03c3c046bd4607b090bd80b51a
:102b540088b000aff860b9607a6014217b18002255
:102b64001a607b1800225a600023fb61bb681a6854
:102b74007b681b689a4207d2bb681a687b681b682b
:102b8400d21a7b181a6007e0bb681a687b681b6856
:102b9400d21a1423fb181a60bb681a687b681b6876
:102ba4009a4233d27b681a68bb681b68d31afb61ec
:102bb40015e0fb6943f2006cccf2654c6344fb61a5
:102bc4001422bb181b6823b9bb18012252421a6095
:102bd40005e014217b181b685a1e7b181a60fa69d9
:102be4004cf6ff13c3f69a339a42e2d81422bb1868
:102bf4001b6823b9bb18012252421a600ee014214b
:102c04007b181b685a1e7b181a6007e0bb685a6859
:102c14007b685b68d21a1423fb185a60fb68142281
:0e2c2400ba1803ca03c3c046bd4608b080bd3f
:020000040000fa
:102c320006d128b9f54203d800d30ab96d0d09d1de
:102c42000020c143090dc904f0bdf9d11242f7d1e8
:102c5200640df5d00020c14349054908a6e00020d3
:102c62006146f0bdf0b50127ff070e005e403e4011
:102c7200b446be0a4c18dd18f442d9d2f542e4d269
:102c8200640decd06d0dead06419c9023943460dca
:102c9200c0023143db023b43db0a10b48e4685b2ed
:102ca20097b26f43140c6c433e0ca419260c2404f7
:102cb200bfb227439cb26c43a419190c6943250c7b
:102cc200a4b249190d04090c6419000c95b24543cc
:102cd2003e0c76193743bfb2360c150c4543ad197d
:102ce200a6b2240cad192e0437432e0c36199db210
:102cf2004543ad19acb22e0c89191d0c45436d1814
:102d02002e04290c3443704680b295b245433e0ce2
:102d120076193743bfb2360c150c4543ad19a6b22e
:102d2200ad19240c2e0437432e0c36199db245439f
:102d3200ad19acb22e0c89191d0c45436d182e0429
:102d42003443290c75462d0c90b268433e0c801911
:102d52000604bfb23e43070ca0b23f18120c6a43ee
:102d6200d019020c80b2240ca4189ab26a43121928
:102d720014042043120c89181b0c6b43c91810bc95
:102d820001273d05294203d1b61940414941013c81
:102d9200ff077d0d013d641b0bdb6d00ac4209dac0
:102da200240500254208be4168416141664631431f
:062db200f0bd54e74ee7fe
:020000040000fa
:102db800f0b58fb00d934b680c9006938b680d009f
:102dc8000793cb6816000393069b0f68002b42db22
:102dd80002239f4310233b400a93079b04930a9bbb
:102de8003bb1726833681343079a13b11300023b6f
:102df800049308233b400b935a1e9341049ad31a19
:102e080004933368039a0893736809932b695c1ecb
:102e180000231355069b0593012c1fdc0a9b002bee
:102e280050d10b9b1bb12023039a013c13552b69ee
:102e380000975a1e039b121b19190c98079b00f048
:102e4800e9f80c9b5b68db0503d56b68984200daf0
:102e580018000fb0f0bd01230693bbe7089b099a41
:102e680013435bb9059b002b08dc069a049b9b1a4d
:102e7800059a9b18002bd1ddbb07cfd50f23089ae5
:102e8800013c134018005730092b01dc303318007f
:102e98000d9b413b192b06d820230343613b192b7b
:102ea80001d800f0cffa039b1855059b013b059309
:102eb800099b1a07089b1b091a43099b08921b09bf
:102ec8000993a9e70cce1343002baad0039b0d9ab4
:102ed8001b19013b1a703023039a023c1355a0e7d3
:020000040000fa
:102ee80010b588293ad014dc81294ad003dc80291e
:102ef80047d0002010bd822910d08429f9d1196843
:102f08002ab30a1d1a6000228b5e0360db17436038
:102f180010e0a0292ed00fdc9029ead119680724e7
:102f28006ab30919a1430a0008321a600b684c6891
:102f3800036044600120dde7c02901d0f029d8d121
:102f48001a68111d1960136803600023dfe70c1d60
:102f58001c600b689bb203604260ebe7196822b102
:102f68000a1d1a600023cb56cfe70c1d1c600b68a6
:102f7800dbb2f0e71a68111d19601368c5e707315d
:102f8800d0e719681ab10a1d1a600b68bde70c1d55
:062f98001c600b68dfe77e
:020000040000fa
:102f9e0040f20003c0f2000323b140f20003c0f27e
:102fae000003984740f20003c0f2000323b140f241
:102fbe000003c0f20003984700f067f940f20003e7
:102fce00c0f200037f2293434ef60052cef200026f
:102fde00936043f20113c0f20003984740f20003de
:102fee00c0f2000323b140f20003c0f20003984781
:102ffe0040f20003c0f2000323b140f20003c0f21e
:0e300e000003984700210020fef7bffbfee7fd
:020000040000fa
:10301c00f0b51d00012389b014000e9a06001a4069
:10302c00039102920ab9a5420ad8220003993000f2
:10303c0000f059f9a54203d82500280009b0f0bdcd
:10304c002f1b01973a00102f00d91022202104a821
:10305c0000f0d4f9019b0f2b0ed80f2204a93a4093
:10306c00300000f040f9029b002be6d122000399be
:10307c00300000f038f9e0e7102204a9300000f02d
:0a308c0032f9019b103b0193e4e7c9
:020000040000fa
:1030960010b584291fd007dc812915d0822922d0ba
:1030a600802911d0002010bd90291cd008dc882969
:1030b600f8d119680c1d1c600b6803601a7010e0cb
:1030c600a02901d0c029edd119680c1d1c600b6820
:1030d60003601a6005e019680c1d1c600b6803602c
:1030e6001a800120dfe719680c1d1c600b6803605d
:0830f6001a60d2175a60f4e7da
:020000040000fa
:0230fe00fee7eb
:020000040000fa
:1031000000230e4a10b513600d4a0e4c13600e4a90
:1031100013600e4a13600e4a13600e4a5362136125
:103120000133936000f023f900f021f90a4b9c422f
:1031300000d310bd08cc9847f8e7c04670030020c4
:10314000c402002068010000c0020020b802002074
:0c315000bc020020c80200206c0100003e
:020000040000fa
:10315c0030b51500012289b0524201920432ff327f
:10316c00029200b9684603900491002401b14c1ef0
:10317c000594002906da4f220120074b40421a60c1
:10318c0009b030bd00220790027006901a00290089
:0c319c0001a800f0f3f8f3e77403002032
:020000040000fa
:1031a80010b5054c227832b9044b13b1044800e03d
:1031b80000bf0123237010bd34030020000000006d
:1031c80000000000034b10b51bb10349034800e0a1
:1031d80000bf10bd00000000380300200000000000
:020000040000fa
:1031e80030b401256d054c00e54215d85c00e54278
:1031f80012d80c001c436400044314430cd005d2bd
:10320800904299418041404230bc704782428b4194
:0e3218008041404230bc7047002030bc7047ff
:020000040000fa
:10322600030010b51a78202a0dd011000939042997
:1032360009d900212b2a02d02d2a01d101310133cf
:1032460000200a2404e00133ece760430133801ace
:0e3256001a78303a092af8d901b9404210bd61
:020000040000fa
:1032640070b5040000200a4b4200d55c15b9d21891
:10327400507870bd216801300e78c0b2ae4204d1de
:10328400034b0131d218507821600a28ebd9f0e7ba
:04329400b63300004d
:020000040000fa
:1032980010b50948016811b9436803b910bd0400a5
:1032a8008368064a9bb20c349b009b5842682000f6
:1032b800984780002018ede774220000e0330000f2
:020000040000fa
:1032c800002380290fdb812901dd83290bd1072108
:1032d800136807338b431900083111601a685b685b
:0a32e80002604360012318007047e4
:020000040000fa
:1032f20070b505690400954200d915005db12a0038
:10330200606900f076f8226963695b19551b002237
:08331200636125611a7070bdb2
:020000040000fa
:10331a00002310b5934206d103201840421e904163
:0e332a009b08c01810bdc45ccc540133f2e700
:020000040000fa
:1033380043f25533c0f20003004206d5404200b5bf
:0c334800984708bc0122d2071143184727
:020000040000fa
:1033540040f21d42010007d002d4013a0018fcd506
:0a3364001205c30a400599187047ce
:020000040000fa
:02336e007047a6
:020000040000fa
:10337000037833b1030001331a78002afbd1181afd
:0833800070470020fce7c04685
:020000040000fa
:1033880013b50400019201aafff720f96368db0670
:0833980001d50120404216bde1
:020000040000fa
:1033a0000cb407b504ab04cb0193fff7d7fe03b011
:0633b00008bc02b0184742
:020000040000fa
:1033b60068076c094c836a9074a07ac0008068889c
:0633c60000846c8200810e
:020000040000fa
:1033cc003c0c00003c0c00003c0c00003c0c0000d1
:0433dc003c0c0000a5
:020000040000fa
:1033e0001d3400001b3300007334000073340000f0
:0433f0007334000032
:020000040000fa
:1033f40010b52ab10023cc5cc45401339342fad1f2
:0434040010bdc046f1
:020000040000fa
:1034080032b10300c9b28218197001339342fbd15b
:043418007047c046f3
:020000040000fa
:10341c008a18914201d10020704700230b700131b2
:02342c00f7e7c0
:020000040000fa
:10342e0010b5fff7c2fcfff758fdfff72dfe10bddc
:020000040000fa
:0e343e000300413b192b01d82023184370478f
:020000040000fa
:0e344c000300613b192b01d85f231840704725
:020000040000fa
:08345a00286e696c29002500b1
:020000040000fa
:0834620010b5fff7ebff10bdf0
:020000040000fa
:08346a0010b5fff7eeff10bde5
:020000040000fa
:04347200002070477f
:020000040000fa
:04347600002070477b
:020000040000fa
:04347a000020704777
:020000040000fa
:04347e000020704773
:00000001FF
