:020000040000fa
:10000000f07f002065270000e3270000e3270000c1
:1000100000000000000000000000000000000000e0
:10002000000000000000000000000000e3270000c6
:100030000000000000000000e3270000af220000e5
:10004000e3270000e3270000e3270000e327000088
:10005000e327000061090000e3270000e327000018
:10006000e3270000e3270000df0b0000e327000088
:10007000e3270000e3270000e3270000e327000058
:10008000e3270000e3270000e3270000e327000048
:10009000e3270000e3270000e3270000e327000038
:1000a000e3270000e3270000e3270000e327000028
:1000b000e3270000e3270000e3270000e327000018
:1000c000e3270000e3270000e3270000e327000008
:1000d000e3270000e3270000e3270000e3270000f8
:1000e000e3270000e3270000e3270000e3270000e8
:1000f000e3270000e3270000e3270000e3270000d8
:10010000e3270000e3270000e3270000e3270000c7
:10011000e3270000e3270000e3270000e3270000b7
:10012000e3270000e3270000e3270000e3270000a7
:10013000e3270000e3270000e3270000e327000097
:10014000e3270000e3270000e3270000e327000087
:0c015000e3270000e3270000e327000085
:020000040000fa
:10015c00f8b5c046f8bc08bc9e4670476528000040
:10016c00f8b5c046f8bc08bc9e4670474128000054
:020000040000fa
:10017c0080b582b000af0200fb1d1a70fb1d1b780e
:10018c007f2b12d8fb1d1b781a001f231a4011005d
:10019c004ef20013cef20003fa1d127852b252093d
:1001ac000120884001009200d150c046bd4602b0eb
:1001bc0080bd90b583b000af02003960fb1d1a7092
:1001cc00fb1d1b787f2b2fd84ef20013cef20003b1
:1001dc00fa1d127852b29208c0329200d358fa1d0e
:1001ec001278110003220a40d200ff2191400a002c
:1001fc00d2431a4010003b689b01ff221a40fb1da2
:10020c001b78190003230b40db009a4011004ef2bf
:10021c000013cef20003fa1d127852b29208014379
:10022c00c0329200d15037e04ef60053cef20003ac
:10023c00fa1d127811000f220a40083a9208063271
:10024c0092009b1804331b68fa1d127811000322cc
:10025c000a40d200ff2191400a00d2431a401000fc
:10026c003b689b01ff221a40fb1d1b7819000323de
:10027c000b40db009a404ef60053cef20003f91d02
:10028c0009780c000f2121400839890802430631f6
:10029c0089005b1804331a60c046bd4603b090bd9c
:1002ac0080b500af42f20043c4f2002380225a71a1
:1002bc00c04642f20043c4f200231b6904221340df
:1002cc00002bf6d142f20043c4f200239b8a9bb26e
:1002dc001800bd4680bd80b582b000af00237b60a6
:1002ec0040f20043c4f2000301229a7140f2004331
:1002fc00c4f2000302229a7000e0c04640f20043b0
:10030c00c4f200039b79dbb21a0001231340002bcb
:10031c00f3d040f20043c4f2000301229a7145f27b
:10032c000003c4f2001304225a6041f60003c4f225
:10033c00000340f202321a6200e0c04641f60003ac
:10034c00c4f20003da688023db021340002bf4d0e4
:10035c0041f20003c4f2000300221a8600e0c046fa
:10036c0041f20003c4f200031a6980235b041340ba
:10037c00002bf4d046f22003c0f280031b687b6094
:10038c007a68fc23db0513407b607b68db0b7b60ae
:10039c007b6840f2002213437b6041f20003c4f2fd
:1003ac0000037a685a6300e0c04641f20003c4f2cd
:1003bc0000031a6980235b041340002bf4d041f234
:1003cc000003c4f200031b8e9ab241f20003c4f284
:1003dc00000302210a4392b21a8600e0c04641f2a1
:1003ec000003c4f200031a6980235b041340002b42
:1003fc00f4d041f60043c4f2000340f205129a62b5
:10040c0000e0c04641f60043c4f200035b681022d2
:10041c001340002bf5d141f60043c4f2000340f227
:10042c000712c0f202021a6200e0c04641f6004315
:10043c00c4f200035b6804221340002bf5d1c046c4
:10044c00bd4602b080bd80b500af41f60043c4f29a
:10045c00000390224221995000e0c04641f600432f
:10046c00c4f2000390229b5842221340002bf4d07c
:10047c0042f60023c4f2000301221a7000e0c046c9
:10048c0042f60023c4f200035b6801221340002be8
:10049c00f5d142f60023c4f200030f225a63c04682
:1004ac00bd4680bd80b500af42f60023c4f2000308
:1004bc001b78dab242f60023c4f2000302210a438d
:1004cc00d2b21a7000e0c04642f60023c4f2000318
:1004dc005b6802221340002bf5d1c046bd4680bd9f
:1004ec0080b500af40f20023c4f2002301221a7041
:1004fc00c046c046c046c046bd4680bd80b500afb4
:10050c0043f20023c4f200039a6843f20023c4f2be
:10051c00000348f200010a439a6043f20023c4f23c
:10052c0000034f229b5cdab243f20023c4f20003b7
:10053c0002210a43d1b24f22995443f20023c4f250
:10054c0000039a6843f20023c4f2000302210a4319
:10055c009a60c046bd4680bd80b500af41f60043f1
:10056c00c4f2002380225a71c04641f60043c4f203
:10057c0000231b6904221340002bf6d141f60043e3
:10058c00c4f200239b8a9bb21800bd4680bd80b587
:10059c0000af43f20043c4f200235b79dab243f2ba
:1005ac000043c4f20023802149420a43d2b25a715b
:1005bc00c04643f20043c4f200239b681022134050
:1005cc00002bf6d143f20043c4f200235b6b1800fe
:1005dc00bd4680bdb0b500af43f20023c4f20003aa
:1005ec009a6943f20023c4f20003802109030a43f1
:1005fc009a6140f20403c2f200031b68012b2fd155
:10060c0043f20043c4f2002345f69072c0f201029b
:10061c001a64c04643f20043c4f200239b68802254
:10062c001340002bf6d143f20023c4f200039a6965
:10063c0043f20023c4f2000302210a439a61fff73c
:10064c00a6ff03001a0043f20043c4f200231b6c04
:10065c009a4205d340f20003c2f2000301221a6051
:10066c0040f20803c2f200031b78042b00d96be1a3
:10067c009a00b74bd3181b689f4643f20023c4f271
:10068c0000035a6943f20023c4f2000348f200014c
:10069c000a435a6158e141f60043c4f2002345f67f
:1006ac008e329a83c04641f60043c4f200231b6984
:1006bc0040221340002bf6d1fff74eff0300180029
:1006cc0002f04df904000d0041f60043c4f2002382
:1006dc009b8b9bb2180002f042f94cf6cd42ccf643
:1006ec00cc424cf6cc43c3f6ec7301f034ff020061
:1006fc000b002000290002f0dcf8030063b143f288
:10070c000023c4f200035a6943f20023c4f200032d
:10071c0048f200010a435a61fff71eff030018005c
:10072c0002f01df904000d0041f60043c4f2002351
:10073c009b8b9bb2180002f012f94cf6cd42ccf612
:10074c00cc424cf6cc43c3f6ec7301f004ff020030
:10075c000b002000290002f08df8030003b9f3e030
:10076c0043f20023c4f200039a6943f20023c4f25b
:10077c00000348f200010a439a61e5e041f60043a8
:10078c00c4f2002342f6c7529a83c04641f6004396
:10079c00c4f200231b6940221340002bf6d1fff753
:1007ac00dbfe0300180002f0daf804000d0041f63d
:1007bc000043c4f200239b8b9bb2180002f0cff8cd
:1007cc0049f69a12c9f6991249f69913c3f6e973c8
:1007dc0001f0c1fe02000b002000290002f069f8b4
:1007ec00030063b143f20023c4f200035a6943f2dd
:1007fc000023c4f2000348f200010a435a61fff7d8
:10080c00abfe0300180002f0aaf804000d0041f63c
:10081c000043c4f200239b8b9bb2180002f09ff89c
:10082c0049f69a12c9f6991249f69913c3f6e97367
:10083c0001f091fe02000b002000290002f01af8d2
:10084c00030003b980e043f20023c4f200039a6969
:10085c0043f20023c4f2000348f200010a439a61f8
:10086c0072e041f60043c4f2002341f678329a83d9
:10087c00c04641f60043c4f200231b6940221340da
:10088c00002bf6d1fff768fe0300180002f067f8a2
:10089c0004000d0041f60043c4f200239b8b9bb275
:1008ac00180002f05cf800220023c3f6e07301f09c
:1008bc0052fe02000b002000290001f0faff030099
:1008cc0063b143f20023c4f200035a6943f20023dc
:1008dc00c4f2000348f200010a435a61fff73cfee0
:1008ec000300180002f03bf804000d0041f6004331
:1008fc00c4f200239b8b9bb2180002f030f800224c
:10090c000023c3f6e07301f026fe02000b0020006a
:10091c00290001f0afff030003b915e043f20023f7
:10092c00c4f200039a6943f20023c4f2000348f2b4
:10093c0000010a439a6107e043f20023c4f200036a
:10094c0048f200029a61c046c046bd46b0bdc046e2
:10095c002c29000080b500af40f24033c2f20003f6
:10096c001b889bb2032293439ab240f24033c2f2eb
:10097c0000031a8042f60023c4f200039b6b04228e
:10098c00134073b940f24033c2f200031b889bb290
:10099c00012213439ab240f24033c2f200031a8090
:1009ac000de040f24033c2f200031b889bb20222de
:1009bc0013439ab240f24033c2f200031a8042f65b
:1009cc000023c4f200035a6942f60023c4f2000368
:1009dc0004210a435a61c046bd4680bd80b500afb4
:1009ec0043f20023c4f200035a6843f20023c4f21a
:1009fc000003802109040a435a6043f20023c4f225
:100a0c00000357229b5cdab243f20023c4f20003ca
:100a1c0007210a43d1b25722995443f20023c4f25e
:100a2c0000039a6943f20023c4f2000301210a4334
:100a3c009a6143f20022c4f2000243f20023c4f292
:100a4c0000033b21525cd1b23b22995442f6002365
:100a5c00c4f200031a6b42f60023c4f20003042113
:100a6c000a431a6342f60023c4f20003da6942f621
:100a7c000023c4f2000328490a40da6142f600233d
:100a8c00c4f20003da6942f60023c4f2000340f614
:100a9c0000310a43da6142f60023c4f20003da693a
:100aac0042f60023c4f20003c02189050a43da612f
:100abc0042f60023c4f20003da6942f60023c4f2c2
:100acc000003802109060a43da6142f60023c4f2ce
:100adc0000031a6b42f60023c4f2000380210a4380
:100aec001a6342f60023c4f200031a6942f600238b
:100afc00c4f2000304210a431a6142f60023c4f233
:100b0c0000031a6942f60023c4f2000380210a4351
:100b1c001a61c046bd4680bdfff0ffff80b582b0b4
:100b2c0000afba1d40f24033c2f200031b881380a1
:100b3c0040f24033c2f2000300221a80bb1d1b8816
:100b4c001800bd4602b080bd80b500afbff35f8f0b
:100b5c0062b603210a20fff72cfb03210320fff7c9
:100b6c0028fb03210520fff724fb01235b42032113
:100b7c001800fff71efb0a20fff7fafa0320fff715
:100b8c00f7fa0520fff7f4fa01235b421800fff790
:100b9c00effac046bd4680bd80b500affff79bfbaa
:100bac00fff79efcfff74ffc00f00af900f0a8f9e4
:100bbc00fff714fffff7a2fc00f09ff800f01cfaff
:100bcc00fff770fc01f0c1fbfff7beffc046bd464e
:100bdc0080bd80b500af42f60023c4f200035a6911
:100bec0042f60023c4f2000380210a435a6140f20a
:100bfc000403c2f2000301221a6040f24433c2f231
:100c0c0000031b6863b940f24833c2f200031b684f
:100c1c0033b940f24433c2f2000301221a6032e0cd
:100c2c0040f24433c2f200031b68012b12d140f294
:100c3c004833c2f200031b6863b940f24433c2f27a
:100c4c00000300221a6040f24833c2f20003012272
:100c5c001a6018e040f24433c2f200031b6893b9e7
:100c6c0040f24833c2f200031b68012b0bd140f257
:100c7c004433c2f2000301221a6040f24833c2f23c
:100c8c00000300221a6043f20043c4f200235b7994
:100c9c00dab243f20043c4f2002320210a43d2b259
:100cac005a71c04643f20043c4f200239b680422ed
:100cbc001340002bf6d1c04643f20042c4f200228e
:100ccc0043f20043c4f200235279d2b2111c597181
:100cdc00002af1d143f20043c4f2002300225a63ec
:100cec00c04643f20043c4f200239b681022134019
:100cfc00002bf6d1c046bd4680bd80b500af43f297
:100d0c000023c4f200039a6843f20023c4f20003e8
:100d1c00802109030a439a6043f20023c4f20003c2
:100d2c0053229b5cdab243f20023c4f2000302218b
:100d3c000a43d1b25322995443f20023c4f2000364
:100d4c009a6943f20023c4f20003802109030a4389
:100d5c009a6143f20023c4f2000352229b5cdab284
:100d6c0043f20023c4f2000307210a43d1b25222fa
:100d7c00995443f20022c4f2000243f20023c4f25d
:100d8c00000392689a6043f20023c4f200035a698c
:100d9c0043f20023c4f200038021c9020a435a61c2
:100dac0043f20022c4f2000243f20023c4f2000317
:100dbc003921525cd1b239229954c046bd4680bd0e
:100dcc0080b500af41f60043c4f20003dc224021a1
:100ddc009950c04641f60043c4f20003dc229b58f4
:100dec009b01002bf6d041f60043c4f200230122f4
:100dfc001a60c04641f60043c4f200231b6901226d
:100e0c001340002bf6d141f60043c4f2002300221c
:100e1c001a6041f60043c4f2002310221a6041f616
:100e2c000043c4f2002340f200721a6041f6004302
:100e3c00c4f2002301221a7341f60043c4f20023ca
:100e4c001a6841f60043c4f2002302210a431a60d7
:100e5c0041f60043c4f20003e02240219950c04601
:100e6c0041f60043c4f20003e0229b589b01002b87
:100e7c00f6d042f20043c4f2002301221a60c046ad
:100e8c0041f60043c4f200231b6901221340002bde
:100e9c00f6d142f20043c4f2002300221a6042f25f
:100eac000043c4f2002310221a6042f20043c4f241
:100ebc00002340f200721a6042f20043c4f2002395
:100ecc0001221a7342f20043c4f200231a6842f260
:100edc000043c4f2002302210a431a60c046bd46f7
:100eec0080bd80b582b000af3b00180001f065fa00
:100efc003b00180000f0c2fac046bd4602b080bdef
:100f0c0080b500af41f60043c4f20003ec2240214f
:100f1c009950c04641f60043c4f20003ec229b58a2
:100f2c0040221340002bf5d043f20043c4f20023bf
:100f3c001a6843f20043c4f2002301210a431a60e9
:100f4c00c04643f20043c4f200239b680122934342
:100f5c00002bf6d143f20043c4f200231a6843f28b
:100f6c000043c4f2002341f200710a431a60c046e8
:100f7c0043f20043c4f200239b6801229343002bed
:100f8c00f6d143f20042c4f2002243f20043c4f211
:100f9c00002352695a6143f20043c4f20023d96b17
:100fac0043f20043c4f200230222c0f20b020a43b4
:100fbc00da63c04643f20043c4f200239b6840222c
:100fcc009343002bf6d143f20043c4f200231a687a
:100fdc0043f20043c4f2002302210a431a60c046c4
:100fec0043f20043c4f200239b6801229343002b7d
:080ffc00f6d1c046bd4680bde0
:020000040000fa
:1010040080b500af40f60003c4f20003da6940f68d
:101014000003c4f2000310210a43da6141f60043dd
:10102400c4f20003d02242219950c04641f6004345
:10103400c4f20003d0229b5840221340002bf5d069
:1010440040f2f823c2f200032c220021180001f020
:10105400bbfc40f2f823c2f2000341f20002c4f2e6
:1010640000221a6041f20003c4f2002301221a6034
:10107400c04641f20003c4f20023db69012213409d
:10108400002bf6d141f20003c4f2002304221a60bb
:1010940041f20003c4f200231a6841f20003c4f2cf
:1010a40000238021c9050a431a6041f20003c4f2f7
:1010b40000231a6841f20003c4f20023802149038b
:1010c4000a431a6041f20002c4f2002241f2000312
:1010d400c4f2002352685a6041f20003c4f20023b0
:1010e4001a6841f20003c4f20023802149040a4330
:1010f4001a6041f20002c4f2002241f20003c4f279
:10110400002352685a6041f20002c4f2002241f204
:101114000003c4f2002312681a6041f20002c4f210
:10112400002241f20003c4f2002312681a6041f263
:101134000002c4f2002241f20003c4f20023526808
:101144005a6041f20002c4f2002241f20003c4f2e8
:10115400002352685a6041f20002c4f2002241f2b4
:101164000003c4f2002392689a6041f20003c4f2bf
:101174000023404a9a8140f2f823c2f2000300227d
:101184005a6240f2f823c2f2000344f61c62c0f231
:101194000e029a6241f20003c4f200235a6841f23b
:1011a4000003c4f20023c32109040a435a60c04661
:1011b40041f20003c4f20023db6904221340002b34
:1011c400f6d143f20023c4f20003c8229b5cdab2d6
:1011d40043f20023c4f2000303210a43d1b2c8221c
:1011e400995443f20023c4f20003b4229b5cdab2a4
:1011f40043f20023c4f2000303210a43d1b2b42210
:10120400995443f20023c4f20003c9229b5cdab26e
:1012140043f20023c4f2000303210a43d1b2c922da
:10122400995443f20023c4f20003b4229b5cdab263
:1012340043f20023c4f2000330210a43d1b2b422a2
:10124400995441f20003c4f200231a6841f20003e6
:10125400c4f2002302210a431a60c04641f200038b
:10126400c4f20023db6902221340002bf6d1c046ee
:10127400bd4680bd05c5ffff80b582b000af786074
:101284007b685b6963b17b685b690122da807b6898
:101294005b697a68128c92b21a817b6800225a6167
:1012a4007b6800229a617b680022da617b680022f5
:1012b4001a84c046bd4602b080bd90b587b000af69
:1012c400786039601623fb1800221a801523fb1856
:1012d40000221a707b681b681b7edbb21a00012394
:1012e4001340002b50d07b681b8a9bb283b17b6870
:1012f400db68591c7a68d1601b78dab27b681b689a
:101304009a627b681b8a9bb2013b9ab27b681a8201
:101314007b681b8a9bb2002b36d17b680022da6083
:101324007b681b899bb22bb37b685b681a687b68fc
:10133400da607b685b689b889ab27b681a827b68f8
:101344005b6808331a007b685a607b681b899bb210
:10135400013b9ab27b681a817b68db681bb17b68ae
:101364001b8a9bb283b97b680022da607b68002207
:101374001a8209e07b681b6801221a757b680022c7
:101384005a607b680022da607b681b681b7edbb2d4
:101394001a000423134073b17b681b685b8b9ab2f9
:1013a4001623fb1836490a431a807b681b689a6a1d
:1013b4001523fb181a707b685b69002b59d0162320
:1013c400fb181b8848f20302134048f200029342c0
:1013d40013d17b685b691a687b681b8c9bb2591cb0
:1013e40088b279680884d3181522ba1812781a704a
:1013f4007b683a68183303ca03c37b681b685b8b3a
:101404009bb21ab21623fb1800215b5ef7210b4036
:101414001bb213431ab27b681b6892b25a837b686f
:101424001b8c9ab27b685b699b889bb29a4204d3fb
:101434007b681800fff720ff1ce07b681b8c9bb2c5
:10144400cbb17b6818331a0039680c243b19180097
:1014540000f0fbff7b6824331a003b1911001800cd
:1014640000f0f7fe031e06db7b681800fff704ff9d
:1014740000e0c046c046c046bd4607b090bdc04669
:101484000080ffff80b582b000af78607a6840f2d8
:10149400f823c2f2000311001800fff70effc04644
:1014a400bd4602b080bd80b582b000af78607b6875
:1014b4001b8a9bb25bb97b681b899bb23bb97b6877
:1014c4001b681b7edbb21a00012313400bb90123f6
:1014d40000e000231a1c01231340dbb21800bd46b0
:1014e40002b080bd80b588b000aff860b9607a60a2
:1014f4001e23fb18082252421a80bb680bb17b687a
:101504000bb901233ae07b68202b01d9002335e095
:10151400fb681800fff7c7ff03000bb100232de0a1
:101524000023bb6100237b611ce0bb69db00ba685c
:10153400d3189b881e22ba1812889a4201d200231b
:101544001ce0bb69db00ba68d3189a881e217b189b
:10155400791809888a1a1a807b6901337b61bb690f
:101564000133bb61ba697b689a42ded3fb68ba680f
:101574005a607b689ab2fb681a8101231800bd4641
:1015840008b080bd80b582b000af78607b6800226f
:101594001a817b6800225a607b6800221a827b6869
:1015a4000022da60c046bd4602b080bd80b582b07c
:1015b40000af786039603a68796840f2f823c2f283
:1015c40000031800fff78eff03001800bd4602b0a9
:1015d40080bd80b500af40f2f823c2f200031800ca
:1015e400fff761ff03001800bd4680bd80b500af62
:1015f40040f2f823c2f200031800fff7c3ffc0460d
:10160400bd4680bd80b582b000af78607b685b6901
:101614005a1e9341dbb21800bd4602b080bd80b5ae
:1016240082b000af786039603b685bb13b681b688f
:1016340043b13b689b882bb13b689b884ff6f8729b
:10164400934201d9002316e07b685b690bb1002348
:1016540011e03b680022da803b6800221a817b6833
:1016640000221a847b681833180000f0aafe7b68f5
:101674003a685a6101231800bd4602b080bd80b5a6
:1016840082b000af78607a6840f2f823c2f20003b7
:1016940011001800fff7c3ff03001800bd4602b095
:1016a40080bd80b500af40f2f823c2f200031800f9
:1016b400fff7a8ff03001800bd4680bd80b500af4a
:1016c40040f2f823c2f200031800fff7d5fdc0462c
:0416d400bd4680bdd2
:020000040000fa
:1016d8001b5b313b31482b2d2d2d2d2d2d2d2d2de7
:1016e8002d2d2d2d2d2d2d2d2d2d2d2d2d2d2d2d22
:1016f8002d2d2d2d2d2d2d2d2d2d2d2d2d2d2d2d12
:101708002d2d2d2d2d2d2d2d2d2d2d2d2d2d2d2d01
:101718002d2d2d2d2d2d2d2d2d2d2d2b0d0a7c20f4
:10172800454545203135383a20456c656374726902
:1017380063616c20616e6420456c656374726f6ec2
:1017480069637320456e67696e656572696e6720a7
:101758004c61626f7261746f72792056202020206c
:101768002020207c0d0a7c202020202020202020e2
:101778002041636164656d69632059656172203237
:101788003032342d323032352c2053656d65737408
:101798006572203120202020202020202020202099
:1017a80020202020202020202020207c0d0a7c20a2
:1017b8002020202020202020202020202020202021
:1017c8002020202020202020202020202020202011
:1017d8002020202020202020202020202020202001
:1017e80020202020202020202020202020202020f1
:1017f8002020207c0d0a7c20536f6c7574696f6ef5
:101808003a2047726164656420457865726369733c
:10181800652020202020202020202020202020207b
:1018280020202020202020202020202020202020b0
:1018380020202020202020202020207c0d0a7c2011
:101848002020202020202020202020202020202090
:101858002020202020202020202020202020202080
:101868002020202020202020202020202020202070
:101878002020202020202020202020202020202060
:101888002020207c0d0a7c20417574686f723a20f4
:1018980020454545203135382048616e646c6572b5
:1018a800732028416c6d6172696f2c206465205625
:1018b800696c6c612c204e69657276612c205369c5
:1018c800736f6e2c205475736f29207c0d0a7c2051
:1018d800446174653a202020203231204f637420ff
:1018e80032303234202020202020202020202020a8
:1018f80020202020202020202020202020202020e0
:1019080020202020202020202020202020202020cf
:101918002020207c0d0a2b2d2d2d2d2d2d2d2d2d0c
:101928002d2d2d2d2d2d2d2d2d2d2d2d2d2d2d2ddf
:101938002d2d2d2d2d2d2d2d2d2d2d2d2d2d2d2dcf
:101948002d2d2d2d2d2d2d2d2d2d2d2d2d2d2d2dbf
:101958002d2d2d2d2d2d2d2d2d2d2d2b0d0a0d0a37
:101968000000c0461b5b313b31482b2d2d2d2d2d02
:101978002d2d2d2d2d2d2d2d2d2d2d2d2d2d2d2d8f
:101988002d2d2d2d2d2d2d2d2d2d2d2d2d2d2d2d7f
:101998002d2d2d2d2d2d2d2d2d2d2d2d2d2d2d2d6f
:1019a8002d2d2d2d2d2d2d2d2d2d2d2d2d2d2d2b61
:1019b8000d0a7c20454545203135383a20456c656f
:1019c8006374726963616c20616e6420456c656341
:1019d80074726f6e69637320456e67696e656572b0
:1019e800696e67204c61626f7261746f72792056fc
:1019f800202020202020207c0d0a7c202020202050
:101a0800202020202041636164656d696320596549
:101a1800617220323032342d323032352c20536509
:101a28006d657374657220312020202020202020cd
:101a38002020202020202020202020202020207c42
:101a48000d0a7c202020202020202020202020205b
:101a5800202020202020202020202020202020207e
:101a6800202020202020202020202020202020206e
:101a7800202020202020202020202020202020205e
:101a8800202020202020207c0d0a7c20536f6c759c
:101a980074696f6e3a2047726164656420457865a1
:101aa80072636973652020202020202020202020b8
:101ab800202020202020202020202020202020201e
:101ac8002020202020202020202020202020207cb2
:101ad8000d0a7c20202020202020202020202020cb
:101ae80020202020202020202020202020202020ee
:101af80020202020202020202020202020202020de
:101b080020202020202020202020202020202020cd
:101b1800202020202020207c0d0a7c20417574681c
:101b28006f723a2020454545203135382048616e8e
:101b3800646c6572732028416c6d6172696f2c202a
:101b480064652056696c6c612c204e6965727661fb
:101b58002c205369736f6e2c205475736f29207c69
:101b68000d0a7c20446174653a20202020323120ff
:101b78004f6374203230323420202020202020204f
:101b8800202020202020202020202020202020204d
:101b9800202020202020202020202020202020203d
:101ba800202020202020207c0d0a2b2d2d2d2d2dae
:101bb8002d2d2d2d2d2d2d2d2d2d2d2d2d2d2d2d4d
:101bc8002d2d2d2d2d2d2d2d2d2d2d2d2d2d2d2d3d
:101bd8002d2d2d2d2d2d2d2d2d2d2d2d2d2d2d2d2d
:101be8002d2d2d2d2d2d2d2d2d2d2d2d2d2d2d2b1f
:101bf8000d0a0d0a4f6e2d626f6172642062757452
:101c0800746f6e3a205b52656c65617365645d0d37
:101c18000a426c696e6b2053657474696e673a206a
:101c28005b2020204f464620205d0d0a0000c0465c
:101c3800426c696e6b2053657474696e673a205bf9
:101c48002020204f464620205d0d0a00426c696e18
:101c58006b2053657474696e673a205b2020534c7f
:101c68004f5720205d0d0a00426c696e6b2053654a
:101c78007474696e673a205b204d454449554d2080
:101c88005d0d0a00426c696e6b2053657474696e51
:101c9800673a205b20204641535420205d0d0a00fe
:101ca800426c696e6b2053657474696e673a205b89
:101cb8002020204f4e2020205d0d0a001b5b313272
:101cc8003b31481b5b304b001b5b31313b314800db
:101cd8004f6e2d626f61726420627574746f6e3a14
:101ce800205b507265737365645d20004f6e2d62d2
:101cf8006f61726420627574746f6e3a205b52650e
:101d08006c65617365645d001b5b31333b31480072
:101d1800454d455247454e4359204d4f4445204f68
:041d28004e0d0a0052
:020000040000fa
:101d2c0080b582b000af78607b68882200211800f3
:101d3c0000f046fefef730ff7b6876331a007b68b6
:101d4c009a667b686c22102199527b686833180064
:101d5c00fff791fcc046bd4602b080bd80b582b095
:101d6c0000af78600a00fb1c1a70fb1c1b789bb13f
:101d7c0040f20803c2f200031b78032b0cd840f28c
:101d8c000803c2f200031b780133dab240f20803f5
:101d9c00c2f200031a7017e0fb1c1b78012253409f
:101dac00dbb28bb140f20803c2f200031b785bb1cb
:101dbc0040f20803c2f200031b78013bdab240f296
:101dcc000803c2f200031a707a6841f6c443c0f2e9
:101ddc00000353607b680b221a8140f20803c2f2a5
:101dec0000031b781a0040f26033c2f20003920029
:101dfc00d2587b68da6040f20803c2f200031b7809
:101e0c001a0040f26033c2f200039200d35818005b
:101e1c0000f0c0fd03009ab27b681a827b68043321
:101e2c0002211800fff7befbfef7d4fbc046bd46ef
:101e3c0002b080bdb0b584b000af78600e23fb1843
:101e4c0000221a800c23fb1800221a800a23fb188c
:101e5c0000221a80fff745f8fef7bcfb40f20c039a
:101e6c00c2f200031b68abb97a6841f66c13c0f27e
:101e7c00000353607b6840f2c8221a817b680433ec
:101e8c0001211800fff78efb40f20c03c2f2000395
:101e9c0001221a600e257c19fef740fe03002380f8
:101eac007b191b88002b5ad07b191b8801221340ed
:101ebc00bbb37a6841f6d043c0f2000353607b6831
:101ecc0007221a817a6841f6d843c0f20003d36026
:101edc007b681b221a827b68043302211800fff7ef
:101eec0061fb40f20003c2f200031b68012b36d1e8
:101efc0040f20403c2f2000300221a6040f2000315
:101f0c00c2f2000300221a6043f20023c4f2000361
:101f1c005a6943f20023c4f2000302210a435a61b6
:101f2c001de00e23fb181b8802221340bbb17a68fc
:101f3c0041f6d043c0f2000353607b6807221a813c
:101f4c007a6841f6f443c0f20003d3607b681b222d
:101f5c001a827b68043302211800fff723fb7b688d
:101f6c006e229b5a9bb2012b29d109203b187a680f
:101f7c007621525c1a700200bb181b78052b08d016
:101f8c00bb181b781b2b0cd17b6878229b5c482bd5
:101f9c0007d17b681b88012213439ab27b681a8095
:101fac0006e07b681b88022213439ab27b681a8076
:101fbc007b6870229b5a99b27b68742299527b6819
:101fcc001b881a00012313409bb3fff7fefa030092
:101fdc008bbb7b681b881bb2002b19db7a6841f228
:101fec00d863c0f2000353607b6840f290221a81e0
:101ffc007b681b88784a13439ab27b681a807b688b
:10200c006e22002199527b6868331800fff733fb6e
:10201c007b68043301211800fff7c4fa03005bb19d
:10202c007b681b8847f6fe7213409ab27b681a8055
:10203c0002e0c04600e0c0467b681b881a00022301
:10204c001340002b00d1bfe0fff7bffa0300002bb9
:10205c0000d0bbe07b681b881bb2002b00da99e038
:10206c0008203b187a687621525c1a703b181b7852
:10207c001b2b25d17b6877229b5c5b2b00d06ce003
:10208c007b6878229b5c432b0dd0442b69d141f6a5
:10209c000043c4f2002300229a827b6800211800be
:1020ac00fff75cfe5ae041f60043c4f20023002225
:1020bc009a827b6801211800fff750fec0464de064
:1020cc000822bb181b78612b03d0bb181b78412b43
:1020dc0015d141f60043c4f2002300229a82c04677
:1020ec0041f60043c4f200231b6910221340002b5d
:1020fc00f6d17b6800211800fff730fe2ee0082295
:10210c00bb181b78442b03d0bb181b78642b15d140
:10211c0041f60043c4f2002300229a82c04641f6e5
:10212c000043c4f200231b6910221340002bf6d18c
:10213c007b6801211800fff711fe0fe07b681b88fc
:10214c00022213439ab27b681a807b6870229b5ad6
:10215c0099b27b687422995203e0c04601e0fef705
:10216c00c0fefff732fa0300002bf8d17b686e2219
:10217c00002199527b6868331800fff77cfa7b6862
:10218c001b88154a13439ab27b681a807b687422a9
:10219c00002199527b68043303211800fff702fadf
:1021ac000300abb17b686e22002199527b686833c7
:1021bc001800fff760fa7b681b8847f6fd72134026
:1021cc009ab27b681a8002e0c04600e0c046c04666
:1021dc00c046bd4604b0b0bd0080ffff80b5a2b0c4
:1021ec0000af3b001800fff79bfd3b001800fff70a
:0421fc0021fefae7df
:020000040000fa
:1022000080b582b000af786019e07b685b6843f20c
:102210000062ccf265429a187b685a607b681b6842
:10222000013305d07b681b685a1c7b681a6006e086
:102230007a684cf6ff13c3f69a33536007e07b6865
:102240005a684cf6ff13c3f69a339a42ddd8c0465b
:10225000bd4602b080bd80b582b000af7860396005
:102260007b681a683b681b689a4202d201235b4272
:1022700019e07b681a683b681b689a4201d9012300
:1022800011e07b685a683b685b689a4202d201237e
:102290005b4208e07b685a683b685b689a4201d9f8
:1022a000012300e000231800bd4602b080bd80b5c8
:1022b00082b000af3a0040f24c33c2f2000303cbcd
:1022c00003c23b005b6844f64032c0f24c029a18ed
:1022d0003b005a600de03b005b6843f20062ccf2c9
:1022e00065429a183b005a603b001b685a1c3b0031
:1022f0001a603b005a684cf6ff13c3f69a339a42b1
:10230000e9d840f25433c2f200031b685a1c40f271
:102310005433c2f200031a6040f24c33c2f200039d
:102320003a0003ca03c340f25433c2f200031b68ed
:102330005a1c40f25433c2f200031a604ef21003ea
:10234000cef2000348f25812c0f215029a60c0465d
:10235000bd4602b080bd80b500af4ef21003cef294
:1023600000034ef660225a604ef21003cef20003d4
:1023700048f25812c0f215029a604ef21003cef2e3
:10238000000307221a60c046bd4680bd80b584b0f8
:1023900000af786040f25433c2f200031b68fb6068
:1023a0007a6840f24c33c2f2000303cb03c240f21e
:1023b0005433c2f200031b68fa689a42ead1c0465d
:1023c000bd4604b080bd90b587b000af78604ef2d6
:1023d0001003cef200039b684ef66022d31a7b6195
:1023e0000c243b191800fff7d1ff20003b18596857
:1023f0007a6913005b019b1a9b009b18db001a0093
:102400000c23b2fbf3f3ca183b185a600ee00c2100
:102410007b185b6843f20062ccf265429a187b1825
:102420005a607b181b685a1c7b181a600c217b1899
:102430005a684cf6ff13c3f69a339a42e7d87b6882
:102440007a1803ca03c3c046bd4607b090bd80b525
:1024500088b000aff860b9607a6014217b18002260
:102460001a607b1800225a600023fb61bb681a685f
:102470007b681b689a4207d2bb681a687b681b6836
:10248000d21a7b181a6007e0bb681a687b681b6861
:10249000d21a1423fb181a60bb681a687b681b6881
:1024a0009a4233d27b681a68bb681b68d31afb61f7
:1024b00015e0fb6943f2006cccf2654c6344fb61b0
:1024c0001422bb181b6823b9bb18012252421a60a0
:1024d00005e014217b181b685a1e7b181a60fa69e4
:1024e0004cf6ff13c3f69a339a42e2d81422bb1873
:1024f0001b6823b9bb18012252421a600ee0142156
:102500007b181b685a1e7b181a6007e0bb685a6864
:102510007b685b68d21a1423fb185a60fb6814228c
:0e252000ba1803ca03c3c046bd4608b080bd4a
:020000040000fa
:10252e0006d128b9f54203d800d30ab96d0d09d1e9
:10253e000020c143090dc904f0bdf9d11242f7d1f3
:10254e00640df5d00020c14349054908a6e00020de
:10255e006146f0bdf0b50127ff070e005e403e401c
:10256e00b446be0a4c18dd18f442d9d2f542e4d274
:10257e00640decd06d0dead06419c9023943460dd5
:10258e00c0023143db023b43db0a10b48e4685b2f8
:10259e0097b26f43140c6c433e0ca419260c240402
:1025ae00bfb227439cb26c43a419190c6943250c86
:1025be00a4b249190d04090c6419000c95b24543d7
:1025ce003e0c76193743bfb2360c150c4543ad1988
:1025de00a6b2240cad192e0437432e0c36199db21b
:1025ee004543ad19acb22e0c89191d0c45436d181f
:1025fe002e04290c3443704680b295b245433e0cee
:10260e0076193743bfb2360c150c4543ad19a6b239
:10261e00ad19240c2e0437432e0c36199db24543aa
:10262e00ad19acb22e0c89191d0c45436d182e0434
:10263e003443290c75462d0c90b268433e0c80191c
:10264e000604bfb23e43070ca0b23f18120c6a43f9
:10265e00d019020c80b2240ca4189ab26a43121933
:10266e0014042043120c89181b0c6b43c91810bca0
:10267e0001273d05294203d1b61940414941013c8c
:10268e00ff077d0d013d641b0bdb6d00ac4209dacb
:10269e00240500254208be4168416141664631432a
:0626ae00f0bd54e74ee709
:020000040000fa
:1026b4007c03002004000000010000000000000072
:1026c400240300201c00000000000000740300200c
:1026d40008000000010000008e5b00000100000003
:1026e400400300201800000000000000f802002051
:1026f4002c00000000000000600300201400000013
:1027040001000000381c0000541c0000701c000074
:102714008c1c0000a81c000000000020a80200007f
:102724000000000058030020040000000000000026
:10273400a802002050000000000000005c030020fc
:1027440004000000000000008003002004000000da
:102754000100000000000000000000000000000074
:020000040000fa
:1027640040f20003c0f2000323b140f20003c0f2c0
:102774000003984740f20003c0f2000323b140f283
:102784000003c0f20003984700f0b6f840f20003db
:10279400c0f200037f2293434ef60052cef20002b1
:1027a400936042f2e573c0f20003984740f20003dd
:1027b400c0f2000323b140f20003c0f200039847c3
:1027c40040f20003c0f2000323b140f20003c0f260
:0e27d4000003984700210020fff704fdfee7f8
:020000040000fa
:0227e200fee710
:020000040000fa
:1027e40000230e4a10b513600d4a0e4c13600e4ab6
:1027f40013600e4a13600e4a13600e4a536213614b
:102804000133936000f0f5f800f0f3f80a4b9c42b2
:1028140000d310bd08cc9847f8e7c0465c030020fd
:10282400b402002068010000b0020020a8020020c9
:0c283400ac020020b80200206c01000083
:020000040000fa
:1028400010b5054c227832b9044b13b1044800e0ae
:1028500000bf0123237010bd2403002000000000ee
:1028600000000000034b10b51bb10349034800e012
:1028700000bf10bd00000000280300200000000081
:020000040000fa
:1028800030b401256d054c00e54215d85c00e542e9
:1028900012d80c001c436400044314430cd005d22e
:1028a00082428b418041404230bc70479042994106
:0e28b0008041404230bc7047002030bc704771
:020000040000fa
:1028be0030b401256d054c00e54215d85c00e542ab
:1028ce0012d80c001c436400044314430cd005d2f0
:1028de00904299418041404230bc704782428b41c8
:0e28ee008041404230bc7047002030bc704733
:020000040000fa
:1028fc0010b50948016811b9436803b910bd04004b
:10290c008368064a9bb20c349b009b58426820009b
:10291c00984780002018ede7b4260000b829000085
:020000040000fa
:10292c0086060000a2060000880700006e08000062
:10293c00440900001b5b31333b31481b5b304b00bf
:020000040000fa
:10294c00002310b5934206d103201840421e90413b
:0e295c009b08c01810bdc45ccc540133f2e7d8
:020000040000fa
:10296a0042f68713c0f20003004206d5404200b582
:0c297a00984708bc0122d20711431847ff
:020000040000fa
:1029860040f21d42010007d002d4013a0018fcd5de
:0a2996001205c30a400599187047a6
:020000040000fa
:1029a000037833b1030001331a78002afbd1181ad7
:0829b00070470020fce7c0465f
:020000040000fa
:1029b800e12900004d290000f3290000f329000057
:0429c800f3290000ef
:020000040000fa
:1029cc0032b10300c9b28218197001339342fbd1a2
:0429dc007047c0463a
:020000040000fa
:1029e0008a18914201d10020704700230b700131f9
:0229f000f7e707
:020000040000fa
:0429f200002070470a
:020000040000fa
:0229f600704728
:00000001FF
